{
  "_format": "hh-sol-artifact-1",
  "contractName": "MNEEEscrow",
  "sourceName": "contracts/MNEEEscrow.sol",
  "abi": [
    {
      "inputs": [
        {
          "internalType": "address",
          "name": "tokenAddress",
          "type": "address"
        }
      ],
      "stateMutability": "nonpayable",
      "type": "constructor"
    },
    {
      "inputs": [],
      "name": "AlreadyDisputed",
      "type": "error"
    },
    {
      "inputs": [],
      "name": "DeadlineNotReached",
      "type": "error"
    },
    {
      "inputs": [],
      "name": "DeadlinePassed",
      "type": "error"
    },
    {
      "inputs": [],
      "name": "DisputeNotActive",
      "type": "error"
    },
    {
      "inputs": [],
      "name": "EnforcedPause",
      "type": "error"
    },
    {
      "inputs": [],
      "name": "EscrowExists",
      "type": "error"
    },
    {
      "inputs": [],
      "name": "EscrowNotFound",
      "type": "error"
    },
    {
      "inputs": [],
      "name": "ExpectedPause",
      "type": "error"
    },
    {
      "inputs": [],
      "name": "ExtensionTooLong",
      "type": "error"
    },
    {
      "inputs": [],
      "name": "InvalidAddress",
      "type": "error"
    },
    {
      "inputs": [],
      "name": "InvalidAmount",
      "type": "error"
    },
    {
      "inputs": [],
      "name": "InvalidState",
      "type": "error"
    },
    {
      "inputs": [],
      "name": "NotAuthorized",
      "type": "error"
    },
    {
      "inputs": [
        {
          "internalType": "address",
          "name": "owner",
          "type": "address"
        }
      ],
      "name": "OwnableInvalidOwner",
      "type": "error"
    },
    {
      "inputs": [
        {
          "internalType": "address",
          "name": "account",
          "type": "address"
        }
      ],
      "name": "OwnableUnauthorizedAccount",
      "type": "error"
    },
    {
      "inputs": [],
      "name": "PartialReleaseExceedsBalance",
      "type": "error"
    },
    {
      "inputs": [],
      "name": "ReentrancyGuardReentrantCall",
      "type": "error"
    },
    {
      "inputs": [
        {
          "internalType": "address",
          "name": "token",
          "type": "address"
        }
      ],
      "name": "SafeERC20FailedOperation",
      "type": "error"
    },
    {
      "anonymous": false,
      "inputs": [
        {
          "indexed": true,
          "internalType": "address",
          "name": "agent",
          "type": "address"
        },
        {
          "indexed": false,
          "internalType": "bool",
          "name": "authorized",
          "type": "bool"
        }
      ],
      "name": "AgentAuthorized",
      "type": "event"
    },
    {
      "anonymous": false,
      "inputs": [
        {
          "indexed": true,
          "internalType": "bytes32",
          "name": "escrowId",
          "type": "bytes32"
        },
        {
          "indexed": false,
          "internalType": "uint64",
          "name": "oldDeadline",
          "type": "uint64"
        },
        {
          "indexed": false,
          "internalType": "uint64",
          "name": "newDeadline",
          "type": "uint64"
        }
      ],
      "name": "DeadlineExtended",
      "type": "event"
    },
    {
      "anonymous": false,
      "inputs": [
        {
          "indexed": true,
          "internalType": "bytes32",
          "name": "escrowId",
          "type": "bytes32"
        },
        {
          "indexed": true,
          "internalType": "address",
          "name": "resolvedBy",
          "type": "address"
        },
        {
          "indexed": false,
          "internalType": "bool",
          "name": "releasedToPayee",
          "type": "bool"
        },
        {
          "indexed": false,
          "internalType": "uint256",
          "name": "amount",
          "type": "uint256"
        }
      ],
      "name": "DisputeResolved",
      "type": "event"
    },
    {
      "anonymous": false,
      "inputs": [
        {
          "indexed": true,
          "internalType": "bytes32",
          "name": "escrowId",
          "type": "bytes32"
        },
        {
          "indexed": true,
          "internalType": "address",
          "name": "payer",
          "type": "address"
        },
        {
          "indexed": true,
          "internalType": "address",
          "name": "payee",
          "type": "address"
        },
        {
          "indexed": false,
          "internalType": "address",
          "name": "arbiter",
          "type": "address"
        },
        {
          "indexed": false,
          "internalType": "uint256",
          "name": "amount",
          "type": "uint256"
        },
        {
          "indexed": false,
          "internalType": "uint64",
          "name": "deadline",
          "type": "uint64"
        },
        {
          "indexed": false,
          "internalType": "bytes32",
          "name": "metadataHash",
          "type": "bytes32"
        }
      ],
      "name": "EscrowCreated",
      "type": "event"
    },
    {
      "anonymous": false,
      "inputs": [
        {
          "indexed": true,
          "internalType": "bytes32",
          "name": "escrowId",
          "type": "bytes32"
        },
        {
          "indexed": true,
          "internalType": "address",
          "name": "disputedBy",
          "type": "address"
        },
        {
          "indexed": false,
          "internalType": "uint64",
          "name": "disputedAt",
          "type": "uint64"
        }
      ],
      "name": "EscrowDisputed",
      "type": "event"
    },
    {
      "anonymous": false,
      "inputs": [
        {
          "indexed": true,
          "internalType": "bytes32",
          "name": "escrowId",
          "type": "bytes32"
        },
        {
          "indexed": true,
          "internalType": "address",
          "name": "to",
          "type": "address"
        },
        {
          "indexed": false,
          "internalType": "uint256",
          "name": "amount",
          "type": "uint256"
        }
      ],
      "name": "EscrowRefunded",
      "type": "event"
    },
    {
      "anonymous": false,
      "inputs": [
        {
          "indexed": true,
          "internalType": "bytes32",
          "name": "escrowId",
          "type": "bytes32"
        },
        {
          "indexed": true,
          "internalType": "address",
          "name": "to",
          "type": "address"
        },
        {
          "indexed": false,
          "internalType": "uint256",
          "name": "amount",
          "type": "uint256"
        },
        {
          "indexed": false,
          "internalType": "uint256",
          "name": "remaining",
          "type": "uint256"
        }
      ],
      "name": "EscrowReleased",
      "type": "event"
    },
    {
      "anonymous": false,
      "inputs": [
        {
          "indexed": true,
          "internalType": "address",
          "name": "previousOwner",
          "type": "address"
        },
        {
          "indexed": true,
          "internalType": "address",
          "name": "newOwner",
          "type": "address"
        }
      ],
      "name": "OwnershipTransferred",
      "type": "event"
    },
    {
      "anonymous": false,
      "inputs": [
        {
          "indexed": false,
          "internalType": "address",
          "name": "account",
          "type": "address"
        }
      ],
      "name": "Paused",
      "type": "event"
    },
    {
      "anonymous": false,
      "inputs": [
        {
          "indexed": false,
          "internalType": "address",
          "name": "account",
          "type": "address"
        }
      ],
      "name": "Unpaused",
      "type": "event"
    },
    {
      "inputs": [],
      "name": "DISPUTE_TIMEOUT",
      "outputs": [
        {
          "internalType": "uint64",
          "name": "",
          "type": "uint64"
        }
      ],
      "stateMutability": "view",
      "type": "function"
    },
    {
      "inputs": [],
      "name": "MAX_EXTENSION",
      "outputs": [
        {
          "internalType": "uint64",
          "name": "",
          "type": "uint64"
        }
      ],
      "stateMutability": "view",
      "type": "function"
    },
    {
      "inputs": [],
      "name": "MIN_AMOUNT",
      "outputs": [
        {
          "internalType": "uint256",
          "name": "",
          "type": "uint256"
        }
      ],
      "stateMutability": "view",
      "type": "function"
    },
    {
      "inputs": [],
      "name": "MNEE_MAINNET",
      "outputs": [
        {
          "internalType": "address",
          "name": "",
          "type": "address"
        }
      ],
      "stateMutability": "view",
      "type": "function"
    },
    {
      "inputs": [
        {
          "internalType": "address",
          "name": "",
          "type": "address"
        }
      ],
      "name": "authorizedAgents",
      "outputs": [
        {
          "internalType": "bool",
          "name": "",
          "type": "bool"
        }
      ],
      "stateMutability": "view",
      "type": "function"
    },
    {
      "inputs": [
        {
          "internalType": "bytes32",
          "name": "escrowId",
          "type": "bytes32"
        },
        {
          "internalType": "address",
          "name": "payee",
          "type": "address"
        },
        {
          "internalType": "uint256",
          "name": "amount",
          "type": "uint256"
        },
        {
          "internalType": "address",
          "name": "arbiter",
          "type": "address"
        },
        {
          "internalType": "uint64",
          "name": "deadline",
          "type": "uint64"
        },
        {
          "internalType": "bytes32",
          "name": "metadataHash",
          "type": "bytes32"
        }
      ],
      "name": "createEscrow",
      "outputs": [],
      "stateMutability": "nonpayable",
      "type": "function"
    },
    {
      "inputs": [
        {
          "internalType": "bytes32",
          "name": "escrowId",
          "type": "bytes32"
        },
        {
          "internalType": "address",
          "name": "payee",
          "type": "address"
        },
        {
          "internalType": "uint256",
          "name": "amount",
          "type": "uint256"
        },
        {
          "internalType": "address",
          "name": "arbiter",
          "type": "address"
        },
        {
          "internalType": "uint64",
          "name": "deadline",
          "type": "uint64"
        }
      ],
      "name": "createEscrow",
      "outputs": [],
      "stateMutability": "nonpayable",
      "type": "function"
    },
    {
      "inputs": [
        {
          "internalType": "bytes32",
          "name": "escrowId",
          "type": "bytes32"
        }
      ],
      "name": "dispute",
      "outputs": [],
      "stateMutability": "nonpayable",
      "type": "function"
    },
    {
      "inputs": [],
      "name": "escrowCount",
      "outputs": [
        {
          "internalType": "uint256",
          "name": "",
          "type": "uint256"
        }
      ],
      "stateMutability": "view",
      "type": "function"
    },
    {
      "inputs": [
        {
          "internalType": "bytes32",
          "name": "",
          "type": "bytes32"
        }
      ],
      "name": "escrows",
      "outputs": [
        {
          "internalType": "address",
          "name": "payer",
          "type": "address"
        },
        {
          "internalType": "address",
          "name": "payee",
          "type": "address"
        },
        {
          "internalType": "address",
          "name": "arbiter",
          "type": "address"
        },
        {
          "internalType": "uint256",
          "name": "amount",
          "type": "uint256"
        },
        {
          "internalType": "uint256",
          "name": "released",
          "type": "uint256"
        },
        {
          "internalType": "uint64",
          "name": "deadline",
          "type": "uint64"
        },
        {
          "internalType": "uint64",
          "name": "disputedAt",
          "type": "uint64"
        },
        {
          "internalType": "enum MNEEEscrow.Status",
          "name": "status",
          "type": "uint8"
        },
        {
          "internalType": "bytes32",
          "name": "metadataHash",
          "type": "bytes32"
        }
      ],
      "stateMutability": "view",
      "type": "function"
    },
    {
      "inputs": [
        {
          "internalType": "bytes32",
          "name": "escrowId",
          "type": "bytes32"
        },
        {
          "internalType": "uint64",
          "name": "extension",
          "type": "uint64"
        }
      ],
      "name": "extendDeadline",
      "outputs": [],
      "stateMutability": "nonpayable",
      "type": "function"
    },
    {
      "inputs": [
        {
          "internalType": "bytes32",
          "name": "escrowId",
          "type": "bytes32"
        }
      ],
      "name": "getEscrow",
      "outputs": [
        {
          "internalType": "address",
          "name": "payer",
          "type": "address"
        },
        {
          "internalType": "address",
          "name": "payee",
          "type": "address"
        },
        {
          "internalType": "address",
          "name": "arbiter",
          "type": "address"
        },
        {
          "internalType": "uint256",
          "name": "amount",
          "type": "uint256"
        },
        {
          "internalType": "uint256",
          "name": "released",
          "type": "uint256"
        },
        {
          "internalType": "uint64",
          "name": "deadline",
          "type": "uint64"
        },
        {
          "internalType": "uint64",
          "name": "disputedAt",
          "type": "uint64"
        },
        {
          "internalType": "enum MNEEEscrow.Status",
          "name": "status",
          "type": "uint8"
        },
        {
          "internalType": "bytes32",
          "name": "metadataHash",
          "type": "bytes32"
        }
      ],
      "stateMutability": "view",
      "type": "function"
    },
    {
      "inputs": [
        {
          "internalType": "address",
          "name": "agent",
          "type": "address"
        }
      ],
      "name": "isAuthorizedAgent",
      "outputs": [
        {
          "internalType": "bool",
          "name": "",
          "type": "bool"
        }
      ],
      "stateMutability": "view",
      "type": "function"
    },
    {
      "inputs": [
        {
          "internalType": "bytes32",
          "name": "escrowId",
          "type": "bytes32"
        }
      ],
      "name": "isExpired",
      "outputs": [
        {
          "internalType": "bool",
          "name": "",
          "type": "bool"
        }
      ],
      "stateMutability": "view",
      "type": "function"
    },
    {
      "inputs": [],
      "name": "owner",
      "outputs": [
        {
          "internalType": "address",
          "name": "",
          "type": "address"
        }
      ],
      "stateMutability": "view",
      "type": "function"
    },
    {
      "inputs": [],
      "name": "pause",
      "outputs": [],
      "stateMutability": "nonpayable",
      "type": "function"
    },
    {
      "inputs": [],
      "name": "paused",
      "outputs": [
        {
          "internalType": "bool",
          "name": "",
          "type": "bool"
        }
      ],
      "stateMutability": "view",
      "type": "function"
    },
    {
      "inputs": [
        {
          "internalType": "bytes32",
          "name": "escrowId",
          "type": "bytes32"
        }
      ],
      "name": "refund",
      "outputs": [],
      "stateMutability": "nonpayable",
      "type": "function"
    },
    {
      "inputs": [
        {
          "internalType": "bytes32",
          "name": "escrowId",
          "type": "bytes32"
        }
      ],
      "name": "release",
      "outputs": [],
      "stateMutability": "nonpayable",
      "type": "function"
    },
    {
      "inputs": [
        {
          "internalType": "bytes32",
          "name": "escrowId",
          "type": "bytes32"
        },
        {
          "internalType": "uint256",
          "name": "partialAmount",
          "type": "uint256"
        }
      ],
      "name": "releasePartial",
      "outputs": [],
      "stateMutability": "nonpayable",
      "type": "function"
    },
    {
      "inputs": [
        {
          "internalType": "bytes32",
          "name": "escrowId",
          "type": "bytes32"
        }
      ],
      "name": "remainingBalance",
      "outputs": [
        {
          "internalType": "uint256",
          "name": "",
          "type": "uint256"
        }
      ],
      "stateMutability": "view",
      "type": "function"
    },
    {
      "inputs": [],
      "name": "renounceOwnership",
      "outputs": [],
      "stateMutability": "nonpayable",
      "type": "function"
    },
    {
      "inputs": [
        {
          "internalType": "bytes32",
          "name": "escrowId",
          "type": "bytes32"
        },
        {
          "internalType": "bool",
          "name": "releaseToPayee",
          "type": "bool"
        }
      ],
      "name": "resolveDispute",
      "outputs": [],
      "stateMutability": "nonpayable",
      "type": "function"
    },
    {
      "inputs": [
        {
          "internalType": "address",
          "name": "agent",
          "type": "address"
        },
        {
          "internalType": "bool",
          "name": "authorized",
          "type": "bool"
        }
      ],
      "name": "setAgentAuthorization",
      "outputs": [],
      "stateMutability": "nonpayable",
      "type": "function"
    },
    {
      "inputs": [],
      "name": "token",
      "outputs": [
        {
          "internalType": "contract IERC20",
          "name": "",
          "type": "address"
        }
      ],
      "stateMutability": "view",
      "type": "function"
    },
    {
      "inputs": [],
      "name": "totalValueLocked",
      "outputs": [
        {
          "internalType": "uint256",
          "name": "",
          "type": "uint256"
        }
      ],
      "stateMutability": "view",
      "type": "function"
    },
    {
      "inputs": [
        {
          "internalType": "address",
          "name": "newOwner",
          "type": "address"
        }
      ],
      "name": "transferOwnership",
      "outputs": [],
      "stateMutability": "nonpayable",
      "type": "function"
    },
    {
      "inputs": [],
      "name": "unpause",
      "outputs": [],
      "stateMutability": "nonpayable",
      "type": "function"
    }
  ],
  "bytecode": "0x60a06040523480156200001157600080fd5b5060405162001fa738038062001fa7833981016040819052620000349162000100565b600160005533806200006057604051631e4fbdf760e01b81526000600482015260240160405180910390fd5b6200006b81620000a6565b506001600160a01b038116620000945760405163e6c4247b60e01b815260040160405180910390fd5b6001600160a01b031660805262000132565b600180546001600160a01b03838116610100818102610100600160a81b031985161790945560405193909204169182907f8be0079c531659141344cd1fd0a4f28419497f9722a3daafe3b4186f6b6457e090600090a35050565b6000602082840312156200011357600080fd5b81516001600160a01b03811681146200012b57600080fd5b9392505050565b608051611e286200017f600039600081816105010152818161061901528181610a8701528181610c4801528181610c9b01528181611056015281816112b0015261141f0152611e286000f3fe608060405234801561001057600080fd5b50600436106101c45760003560e01c80637249fbb6116100f9578063d71ba7c411610097578063efd7606511610071578063efd760651461044c578063f023b8111461046f578063f2fde38b146104e9578063fc0c546a146104fc57600080fd5b8063d71ba7c414610422578063ddbcb5fa14610435578063ec18154e1461044357600080fd5b80638da5cb5b116100d35780638da5cb5b146103c057806393a101f6146103ea578063add98c70146103f4578063b75d75851461040757600080fd5b80637249fbb6146103925780638456cb59146103a557806387d9d41c146103ad57600080fd5b80635c975abb1161016657806367d42a8b1161014057806367d42a8b1461031c5780636bf722ab1461032f5780636db2feb21461035b578063715018a61461038a57600080fd5b80635c975abb146102db5780635cd0a6ec146102f2578063675ac67a1461030557600080fd5b80633f4ba83a116101a25780633f4ba83a1461028b5780633f5b02271461029357806343a0e3e6146102a6578063486265c6146102b957600080fd5b806304a1d1ce146101c95780630911e864146101de5780632d83549c146101f1575b600080fd5b6101dc6101d7366004611b49565b610523565b005b6101dc6101ec366004611bb8565b61081e565b61026d6101ff366004611beb565b600460208190526000918252604090912080546001820154600283015460038401549484015460058501546006909501546001600160a01b039485169693851695929094169390916001600160401b0380821692600160401b83049091169160ff600160801b909104169089565b60405161028299989796959493929190611c1a565b60405180910390f35b6101dc6108ac565b6101dc6102a1366004611c96565b6108be565b6101dc6102b4366004611cb8565b610b25565b6102c362093a8081565b6040516001600160401b039091168152602001610282565b60015460ff165b6040519015158152602001610282565b6101dc610300366004611cdb565b610d00565b61030e60025481565b604051908152602001610282565b6101dc61032a366004611beb565b610ecc565b6102e261033d366004611cfe565b6001600160a01b031660009081526005602052604090205460ff1690565b6102e2610369366004611beb565b6000908152600460205260409020600501546001600160401b031642101590565b6101dc6110dd565b6101dc6103a0366004611beb565b6110ef565b6101dc611319565b6101dc6103bb366004611d19565b611329565b60015461010090046001600160a01b03165b6040516001600160a01b039091168152602001610282565b6102c362278d0081565b6101dc610402366004611beb565b611623565b6103d2738ccedbae4916b79da7f3f612efb2eb93a2bfd6cf81565b61030e610430366004611beb565b6117b3565b61030e662386f26fc1000081565b61030e60035481565b6102e261045a366004611cfe565b60056020526000908152604090205460ff1681565b61026d61047d366004611beb565b600090815260046020819052604090912080546001820154600283015460038401549484015460058501546006909501546001600160a01b039485169793851696949092169490926001600160401b0380831693600160401b840490911692600160801b900460ff1691565b6101dc6104f7366004611cfe565b611837565b6103d27f000000000000000000000000000000000000000000000000000000000000000081565b61052b611877565b6105336118a1565b6001600160a01b038516158061055057506001600160a01b038316155b1561056e5760405163e6c4247b60e01b815260040160405180910390fd5b662386f26fc100008410156105965760405163162908e360e11b815260040160405180910390fd5b42826001600160401b0316116105bf5760405163387b2e5560e11b815260040160405180910390fd5b6000868152600460205260408120906005820154600160801b900460ff1660048111156105ee576105ee611c04565b1461060c57604051631e76f79160e01b815260040160405180910390fd5b6106416001600160a01b037f0000000000000000000000000000000000000000000000000000000000000000163330886118c5565b60408051610120810182523381526001600160a01b038881166020830152861691810191909152606081018690526000608082018190526001600160401b03851660a083015260c082015260e0810160018152602090810184905260008981526004808352604091829020845181546001600160a01b039182166001600160a01b03199182161783559486015160018301805491831691871691909117905592850151600282018054919094169416939093179091556060830151600383015560808301518282015560a083015160058301805460c08601516001600160401b03908116600160401b026001600160801b03199092169316929092179190911780825560e08501519260ff60801b1990911690600160801b90849081111561076b5761076b611c04565b021790555061010091909101516006909101556002805490600061078e83611d86565b919050555084600360008282546107a59190611d9f565b9091555050604080516001600160a01b038681168252602082018890526001600160401b038616828401526060820185905291519188169133918a917fefc129adf15b533d98d763055eea6ed86512adc74c38dcc8343f6a4c54686c479181900360800190a4506108166001600055565b505050505050565b610826611932565b6001600160a01b03821661084d5760405163e6c4247b60e01b815260040160405180910390fd5b6001600160a01b038216600081815260056020908152604091829020805460ff191685151590811790915591519182527f1b06338d0edf2ba8ccee31e466ab37b376418209af6a85c55c51e89a51e33bde910160405180910390a25050565b6108b4611932565b6108bc611965565b565b6108c6611877565b6108ce6118a1565b600082815260046020526040902060028101548391906001600160a01b0316331480159061090c57503360009081526005602052604090205460ff16155b1561092a5760405163ea8e4eb560e01b815260040160405180910390fd5b6000848152600460205260408120906005820154600160801b900460ff16600481111561095957610959611c04565b036109775760405163f1d80ab160e01b815260040160405180910390fd5b60016005820154600160801b900460ff16600481111561099957610999611c04565b141580156109c7575060046005820154600160801b900460ff1660048111156109c4576109c4611c04565b14155b156109e55760405163baf3f0f760e01b815260040160405180910390fd5b6000816004015482600301546109fb9190611db8565b905080851115610a1d5760405162ef724f60e81b815260040160405180910390fd5b84826004016000828254610a319190611d9f565b925050819055508460036000828254610a4a9190611db8565b90915550506003820154600483015410610a745760058201805460ff60801b1916600160811b1790555b6001820154610ab0906001600160a01b037f000000000000000000000000000000000000000000000000000000000000000081169116876119b7565b6001820154600483015460038401546001600160a01b039092169188917f99450c840c88bca94a656610fcad5090621de4f47589c6d5844c291b64821063918991610afa91611db8565b604080519283526020830191909152015b60405180910390a350505050610b216001600055565b5050565b610b2d611877565b610b356118a1565b600082815260046020526040902060028101548391906001600160a01b03163314801590610b7357503360009081526005602052604090205460ff16155b15610b915760405163ea8e4eb560e01b815260040160405180910390fd5b6000848152600460208190526040909120906005820154600160801b900460ff166004811115610bc357610bc3611c04565b14610be1576040516303b9ba8b60e31b815260040160405180910390fd5b600081600401548260030154610bf79190611db8565b90508060036000828254610c0b9190611db8565b90915550508415610c765760058201805460ff60801b1916600160811b179055600382015460048301556001820154610c71906001600160a01b037f000000000000000000000000000000000000000000000000000000000000000081169116836119b7565b610cc4565b60058201805460ff60801b1916600360801b1790558154610cc4906001600160a01b037f000000000000000000000000000000000000000000000000000000000000000081169116836119b7565b60408051861515815260208101839052339188917f132d38a4764a3b723f8a96d80fe88e2f04637beba6a6a84c3cf9dc4af2135c599101610b0b565b610d086118a1565b600082815260046020526040902060028101548391906001600160a01b03163314801590610d4657503360009081526005602052604090205460ff16155b15610d645760405163ea8e4eb560e01b815260040160405180910390fd5b6000848152600460205260408120906005820154600160801b900460ff166004811115610d9357610d93611c04565b03610db15760405163f1d80ab160e01b815260040160405180910390fd5b60016005820154600160801b900460ff166004811115610dd357610dd3611c04565b14158015610e01575060046005820154600160801b900460ff166004811115610dfe57610dfe611c04565b14155b15610e1f5760405163baf3f0f760e01b815260040160405180910390fd5b62278d006001600160401b0385161115610e4c57604051630cfa6d6d60e01b815260040160405180910390fd5b60058101546001600160401b0316610e648582611dcb565b60058301805467ffffffffffffffff19166001600160401b03928316908117909155604080519284168352602083019190915287917f9d64d8f6a34a6b9d4d58c5e19b14a0a32ece60ad627012e92a834a0d6b3d67ca910160405180910390a2505050505050565b610ed4611877565b610edc6118a1565b600081815260046020526040902060028101548291906001600160a01b03163314801590610f1a57503360009081526005602052604090205460ff16155b15610f385760405163ea8e4eb560e01b815260040160405180910390fd5b6000838152600460205260408120906005820154600160801b900460ff166004811115610f6757610f67611c04565b03610f855760405163f1d80ab160e01b815260040160405180910390fd5b60016005820154600160801b900460ff166004811115610fa757610fa7611c04565b14158015610fd5575060046005820154600160801b900460ff166004811115610fd257610fd2611c04565b14155b15610ff35760405163baf3f0f760e01b815260040160405180910390fd5b6000816004015482600301546110099190611db8565b60058301805460ff60801b1916600160811b17905560038084015460048501558054919250829160009061103e908490611db8565b9091555050600182015461107f906001600160a01b037f000000000000000000000000000000000000000000000000000000000000000081169116836119b7565b600182015460408051838152600060208201526001600160a01b039092169187917f99450c840c88bca94a656610fcad5090621de4f47589c6d5844c291b6482106391015b60405180910390a3505050506110da6001600055565b50565b6110e5611932565b6108bc60006119ed565b6110f7611877565b6110ff6118a1565b6000818152600460205260408120906005820154600160801b900460ff16600481111561112e5761112e611c04565b0361114c5760405163f1d80ab160e01b815260040160405180910390fd5b60016005820154600160801b900460ff16600481111561116e5761116e611c04565b1415801561119c575060046005820154600160801b900460ff16600481111561119957611199611c04565b14155b156111ba5760405163baf3f0f760e01b815260040160405180910390fd5b60028101546000906001600160a01b03163314806111e757503360009081526005602052604090205460ff165b82549091506001600160a01b0316331481158015611203575080155b156112215760405163ea8e4eb560e01b815260040160405180910390fd5b8115801561123b575060058301546001600160401b031642105b1561125957604051633376277360e11b815260040160405180910390fd5b60008360040154846003015461126f9190611db8565b60058501805460ff60801b1916600360801b17905560038054919250829160009061129b908490611db8565b909155505083546112d9906001600160a01b037f000000000000000000000000000000000000000000000000000000000000000081169116836119b7565b83546040518281526001600160a01b039091169086907ffc31a7ddbe933aa6e67f3c98c183fbc87addd2b602fcfb10238d2f85cf026617906020016110c4565b611321611932565b6108bc611a47565b611331611877565b6113396118a1565b6001600160a01b038416158061135657506001600160a01b038216155b156113745760405163e6c4247b60e01b815260040160405180910390fd5b662386f26fc1000083101561139c5760405163162908e360e11b815260040160405180910390fd5b42816001600160401b0316116113c55760405163387b2e5560e11b815260040160405180910390fd5b6000858152600460205260408120906005820154600160801b900460ff1660048111156113f4576113f4611c04565b1461141257604051631e76f79160e01b815260040160405180910390fd5b6114476001600160a01b037f0000000000000000000000000000000000000000000000000000000000000000163330876118c5565b60408051610120810182523381526001600160a01b038781166020830152851691810191909152606081018590526000608082018190526001600160401b03841660a083015260c082015260e0810160018152600060209182018190528881526004808352604091829020845181546001600160a01b039182166001600160a01b03199182161783559486015160018301805491831691871691909117905592850151600282018054919094169416939093179091556060830151600383015560808301518282015560a083015160058301805460c08601516001600160401b03908116600160401b026001600160801b03199092169316929092179190911780825560e08501519260ff60801b1990911690600160801b90849081111561157157611571611c04565b021790555061010091909101516006909101556002805490600061159483611d86565b919050555083600360008282546115ab9190611d9f565b9091555050604080516001600160a01b038581168252602082018790526001600160401b0385168284015260006060830152915191871691339189917fefc129adf15b533d98d763055eea6ed86512adc74c38dcc8343f6a4c54686c479181900360800190a45061161c6001600055565b5050505050565b61162b6118a1565b6000818152600460205260408120906005820154600160801b900460ff16600481111561165a5761165a611c04565b036116785760405163f1d80ab160e01b815260040160405180910390fd5b60016005820154600160801b900460ff16600481111561169a5761169a611c04565b146116b85760405163baf3f0f760e01b815260040160405180910390fd5b80546001600160a01b031633148015906116df575060018101546001600160a01b03163314155b156116fd5760405163ea8e4eb560e01b815260040160405180910390fd5b6005810154600160401b90046001600160401b031615611730576040516304ee891b60e11b815260040160405180910390fd5b60058101805470ffffffffffffffffff00000000000000001916600160401b426001600160401b03908116820260ff60801b191692909217600160821b1792839055604080519190930490911681529051339184917f1af75e5783581c92820a97e785fdda10bc85c9a34927a336df8af80154218c2c9181900360200190a35050565b600081815260046020526040812060016005820154600160801b900460ff1660048111156117e3576117e3611c04565b148061180e575060046005820154600160801b900460ff16600481111561180c5761180c611c04565b145b1561182e57806004015481600301546118279190611db8565b9392505050565b50600092915050565b61183f611932565b6001600160a01b03811661186e57604051631e4fbdf760e01b8152600060048201526024015b60405180910390fd5b6110da816119ed565b60026000540361189a57604051633ee5aeb560e01b815260040160405180910390fd5b6002600055565b60015460ff16156108bc5760405163d93c066560e01b815260040160405180910390fd5b6040516001600160a01b03848116602483015283811660448301526064820183905261192c9186918216906323b872dd906084015b604051602081830303815290604052915060e01b6020820180516001600160e01b038381831617835250505050611a82565b50505050565b6001546001600160a01b036101009091041633146108bc5760405163118cdaa760e01b8152336004820152602401611865565b61196d611af3565b6001805460ff191690557f5db9ee0a495bf2e6ff9c91a7834c1ba4fdd244a5e8aa4e537bd38aeae4b073aa335b6040516001600160a01b03909116815260200160405180910390a1565b6040516001600160a01b038381166024830152604482018390526119e891859182169063a9059cbb906064016118fa565b505050565b600180546001600160a01b03838116610100818102610100600160a81b031985161790945560405193909204169182907f8be0079c531659141344cd1fd0a4f28419497f9722a3daafe3b4186f6b6457e090600090a35050565b611a4f6118a1565b6001805460ff1916811790557f62e78cea01bee320cd4e420270b5ea74000d11b0c9f74754ebdbfc544b05a2583361199a565b600080602060008451602086016000885af180611aa5576040513d6000823e3d81fd5b50506000513d91508115611abd578060011415611aca565b6001600160a01b0384163b155b1561192c57604051635274afe760e01b81526001600160a01b0385166004820152602401611865565b60015460ff166108bc57604051638dfc202b60e01b815260040160405180910390fd5b80356001600160a01b0381168114611b2d57600080fd5b919050565b80356001600160401b0381168114611b2d57600080fd5b60008060008060008060c08789031215611b6257600080fd5b86359550611b7260208801611b16565b945060408701359350611b8760608801611b16565b9250611b9560808801611b32565b915060a087013590509295509295509295565b80358015158114611b2d57600080fd5b60008060408385031215611bcb57600080fd5b611bd483611b16565b9150611be260208401611ba8565b90509250929050565b600060208284031215611bfd57600080fd5b5035919050565b634e487b7160e01b600052602160045260246000fd5b6001600160a01b038a8116825289811660208301528816604082015260608101879052608081018690526001600160401b0385811660a0830152841660c0820152610120810160058410611c7e57634e487b7160e01b600052602160045260246000fd5b60e08201939093526101000152979650505050505050565b60008060408385031215611ca957600080fd5b50508035926020909101359150565b60008060408385031215611ccb57600080fd5b82359150611be260208401611ba8565b60008060408385031215611cee57600080fd5b82359150611be260208401611b32565b600060208284031215611d1057600080fd5b61182782611b16565b600080600080600060a08688031215611d3157600080fd5b85359450611d4160208701611b16565b935060408601359250611d5660608701611b16565b9150611d6460808701611b32565b90509295509295909350565b634e487b7160e01b600052601160045260246000fd5b600060018201611d9857611d98611d70565b5060010190565b80820180821115611db257611db2611d70565b92915050565b81810381811115611db257611db2611d70565b6001600160401b03818116838216019080821115611deb57611deb611d70565b509291505056fea2646970667358221220df8171c6c7564625d450ec9670749010055fd3dfc68eaeba55be72b5a9b5d4be64736f6c63430008180033",
  "linkReferences": {},
  "deployedLinkReferences": {}
}