{
  "_format": "hh-sol-artifact-1",
  "contractName": "MNEEEscrow",
  "sourceName": "contracts/MNEEEscrow.sol",
  "abi": [
    {
      "inputs": [
        {
          "internalType": "address",
          "name": "tokenAddress",
          "type": "address"
        }
      ],
      "stateMutability": "nonpayable",
      "type": "constructor"
    },
    {
      "inputs": [],
      "name": "DeadlineNotReached",
      "type": "error"
    },
    {
      "inputs": [],
      "name": "EnforcedPause",
      "type": "error"
    },
    {
      "inputs": [],
      "name": "EscrowExists",
      "type": "error"
    },
    {
      "inputs": [],
      "name": "EscrowNotFound",
      "type": "error"
    },
    {
      "inputs": [],
      "name": "ExpectedPause",
      "type": "error"
    },
    {
      "inputs": [],
      "name": "InvalidAddress",
      "type": "error"
    },
    {
      "inputs": [],
      "name": "InvalidAmount",
      "type": "error"
    },
    {
      "inputs": [],
      "name": "InvalidState",
      "type": "error"
    },
    {
      "inputs": [],
      "name": "NotAuthorized",
      "type": "error"
    },
    {
      "inputs": [
        {
          "internalType": "address",
          "name": "owner",
          "type": "address"
        }
      ],
      "name": "OwnableInvalidOwner",
      "type": "error"
    },
    {
      "inputs": [
        {
          "internalType": "address",
          "name": "account",
          "type": "address"
        }
      ],
      "name": "OwnableUnauthorizedAccount",
      "type": "error"
    },
    {
      "inputs": [],
      "name": "ReentrancyGuardReentrantCall",
      "type": "error"
    },
    {
      "inputs": [
        {
          "internalType": "address",
          "name": "token",
          "type": "address"
        }
      ],
      "name": "SafeERC20FailedOperation",
      "type": "error"
    },
    {
      "anonymous": false,
      "inputs": [
        {
          "indexed": true,
          "internalType": "bytes32",
          "name": "escrowId",
          "type": "bytes32"
        },
        {
          "indexed": true,
          "internalType": "address",
          "name": "payer",
          "type": "address"
        },
        {
          "indexed": true,
          "internalType": "address",
          "name": "payee",
          "type": "address"
        },
        {
          "indexed": false,
          "internalType": "address",
          "name": "arbiter",
          "type": "address"
        },
        {
          "indexed": false,
          "internalType": "uint256",
          "name": "amount",
          "type": "uint256"
        },
        {
          "indexed": false,
          "internalType": "uint64",
          "name": "deadline",
          "type": "uint64"
        }
      ],
      "name": "EscrowCreated",
      "type": "event"
    },
    {
      "anonymous": false,
      "inputs": [
        {
          "indexed": true,
          "internalType": "bytes32",
          "name": "escrowId",
          "type": "bytes32"
        },
        {
          "indexed": true,
          "internalType": "address",
          "name": "to",
          "type": "address"
        },
        {
          "indexed": false,
          "internalType": "uint256",
          "name": "amount",
          "type": "uint256"
        }
      ],
      "name": "EscrowRefunded",
      "type": "event"
    },
    {
      "anonymous": false,
      "inputs": [
        {
          "indexed": true,
          "internalType": "bytes32",
          "name": "escrowId",
          "type": "bytes32"
        },
        {
          "indexed": true,
          "internalType": "address",
          "name": "to",
          "type": "address"
        },
        {
          "indexed": false,
          "internalType": "uint256",
          "name": "amount",
          "type": "uint256"
        }
      ],
      "name": "EscrowReleased",
      "type": "event"
    },
    {
      "anonymous": false,
      "inputs": [
        {
          "indexed": true,
          "internalType": "address",
          "name": "previousOwner",
          "type": "address"
        },
        {
          "indexed": true,
          "internalType": "address",
          "name": "newOwner",
          "type": "address"
        }
      ],
      "name": "OwnershipTransferred",
      "type": "event"
    },
    {
      "anonymous": false,
      "inputs": [
        {
          "indexed": false,
          "internalType": "address",
          "name": "account",
          "type": "address"
        }
      ],
      "name": "Paused",
      "type": "event"
    },
    {
      "anonymous": false,
      "inputs": [
        {
          "indexed": false,
          "internalType": "address",
          "name": "account",
          "type": "address"
        }
      ],
      "name": "Unpaused",
      "type": "event"
    },
    {
      "inputs": [
        {
          "internalType": "bytes32",
          "name": "escrowId",
          "type": "bytes32"
        },
        {
          "internalType": "address",
          "name": "payee",
          "type": "address"
        },
        {
          "internalType": "uint256",
          "name": "amount",
          "type": "uint256"
        },
        {
          "internalType": "address",
          "name": "arbiter",
          "type": "address"
        },
        {
          "internalType": "uint64",
          "name": "deadline",
          "type": "uint64"
        }
      ],
      "name": "createEscrow",
      "outputs": [],
      "stateMutability": "nonpayable",
      "type": "function"
    },
    {
      "inputs": [
        {
          "internalType": "bytes32",
          "name": "",
          "type": "bytes32"
        }
      ],
      "name": "escrows",
      "outputs": [
        {
          "internalType": "address",
          "name": "payer",
          "type": "address"
        },
        {
          "internalType": "address",
          "name": "payee",
          "type": "address"
        },
        {
          "internalType": "address",
          "name": "arbiter",
          "type": "address"
        },
        {
          "internalType": "uint256",
          "name": "amount",
          "type": "uint256"
        },
        {
          "internalType": "uint64",
          "name": "deadline",
          "type": "uint64"
        },
        {
          "internalType": "enum MNEEEscrow.Status",
          "name": "status",
          "type": "uint8"
        }
      ],
      "stateMutability": "view",
      "type": "function"
    },
    {
      "inputs": [],
      "name": "owner",
      "outputs": [
        {
          "internalType": "address",
          "name": "",
          "type": "address"
        }
      ],
      "stateMutability": "view",
      "type": "function"
    },
    {
      "inputs": [],
      "name": "pause",
      "outputs": [],
      "stateMutability": "nonpayable",
      "type": "function"
    },
    {
      "inputs": [],
      "name": "paused",
      "outputs": [
        {
          "internalType": "bool",
          "name": "",
          "type": "bool"
        }
      ],
      "stateMutability": "view",
      "type": "function"
    },
    {
      "inputs": [
        {
          "internalType": "bytes32",
          "name": "escrowId",
          "type": "bytes32"
        }
      ],
      "name": "refund",
      "outputs": [],
      "stateMutability": "nonpayable",
      "type": "function"
    },
    {
      "inputs": [
        {
          "internalType": "bytes32",
          "name": "escrowId",
          "type": "bytes32"
        }
      ],
      "name": "release",
      "outputs": [],
      "stateMutability": "nonpayable",
      "type": "function"
    },
    {
      "inputs": [],
      "name": "renounceOwnership",
      "outputs": [],
      "stateMutability": "nonpayable",
      "type": "function"
    },
    {
      "inputs": [],
      "name": "token",
      "outputs": [
        {
          "internalType": "contract IERC20",
          "name": "",
          "type": "address"
        }
      ],
      "stateMutability": "view",
      "type": "function"
    },
    {
      "inputs": [
        {
          "internalType": "address",
          "name": "newOwner",
          "type": "address"
        }
      ],
      "name": "transferOwnership",
      "outputs": [],
      "stateMutability": "nonpayable",
      "type": "function"
    },
    {
      "inputs": [],
      "name": "unpause",
      "outputs": [],
      "stateMutability": "nonpayable",
      "type": "function"
    }
  ],
  "bytecode": "0x60a060405234801561001057600080fd5b50604051610d7d380380610d7d83398101604081905261002f916100f6565b6001600055338061005a57604051631e4fbdf760e01b81526000600482015260240160405180910390fd5b6100638161009c565b506001600160a01b03811661008b5760405163e6c4247b60e01b815260040160405180910390fd5b6001600160a01b0316608052610126565b600180546001600160a01b03838116610100818102610100600160a81b031985161790945560405193909204169182907f8be0079c531659141344cd1fd0a4f28419497f9722a3daafe3b4186f6b6457e090600090a35050565b60006020828403121561010857600080fd5b81516001600160a01b038116811461011f57600080fd5b9392505050565b608051610c27610156600039600081816101d701528181610307015281816104e001526106350152610c276000f3fe608060405234801561001057600080fd5b50600436106100a95760003560e01c80637249fbb6116100715780637249fbb6146101675780638456cb591461017a57806387d9d41c146101825780638da5cb5b14610195578063f2fde38b146101bf578063fc0c546a146101d257600080fd5b80632d83549c146100ae5780633f4ba83a1461012c5780635c975abb1461013657806367d42a8b1461014c578063715018a61461015f575b600080fd5b6101116100bc366004610ab6565b6002602081905260009182526040909120805460018201549282015460038301546004909301546001600160a01b0392831694831693919092169167ffffffffffffffff81169060ff600160401b9091041686565b60405161012396959493929190610ae5565b60405180910390f35b6101346101f9565b005b60015460ff166040519015158152602001610123565b61013461015a366004610ab6565b61020b565b61013461038a565b610134610175366004610ab6565b61039c565b61013461055f565b610134610190366004610b67565b61056f565b60015461010090046001600160a01b03165b6040516001600160a01b039091168152602001610123565b6101346101cd366004610bcf565b6107d7565b6101a77f000000000000000000000000000000000000000000000000000000000000000081565b610201610817565b61020961084a565b565b61021361089c565b61021b6108c6565b6000818152600260205260408120906004820154600160401b900460ff16600381111561024a5761024a610acf565b036102685760405163f1d80ab160e01b815260040160405180910390fd5b60016004820154600160401b900460ff16600381111561028a5761028a610acf565b146102a85760405163baf3f0f760e01b815260040160405180910390fd5b60028101546001600160a01b031633146102d55760405163ea8e4eb560e01b815260040160405180910390fd5b60048101805460ff60401b19166802000000000000000017905560018101546003820154610331916001600160a01b037f00000000000000000000000000000000000000000000000000000000000000008116929116906108ea565b600181015460038201546040519081526001600160a01b039091169083907f3a9c1cd29cd3be251a72ce3c367c27dc1cb697ac4589965b76a83f9a25ca07109060200160405180910390a3506103876001600055565b50565b610392610817565b610209600061094e565b6103a461089c565b6103ac6108c6565b6000818152600260205260408120906004820154600160401b900460ff1660038111156103db576103db610acf565b036103f95760405163f1d80ab160e01b815260040160405180910390fd5b60016004820154600160401b900460ff16600381111561041b5761041b610acf565b146104395760405163baf3f0f760e01b815260040160405180910390fd5b60028101548154336001600160a01b03928316811492919091161481158261045f575080155b1561047d5760405163ea8e4eb560e01b815260040160405180910390fd5b816104b157600483015467ffffffffffffffff164210156104b157604051633376277360e11b815260040160405180910390fd5b60048301805460ff60401b1916680300000000000000001790558254600384015461050a916001600160a01b037f00000000000000000000000000000000000000000000000000000000000000008116929116906108ea565b825460038401546040519081526001600160a01b039091169085907ffc31a7ddbe933aa6e67f3c98c183fbc87addd2b602fcfb10238d2f85cf0266179060200160405180910390a35050506103876001600055565b610567610817565b6102096109a8565b61057761089c565b61057f6108c6565b6001600160a01b038416158061059c57506001600160a01b038216155b156105ba5760405163e6c4247b60e01b815260040160405180910390fd5b826000036105db5760405163162908e360e11b815260040160405180910390fd5b6000858152600260205260408120906004820154600160401b900460ff16600381111561060a5761060a610acf565b1461062857604051631e76f79160e01b815260040160405180910390fd5b61065d6001600160a01b037f0000000000000000000000000000000000000000000000000000000000000000163330876109e3565b6040805160c0810182523381526001600160a01b0387811660208301528516918101919091526060810185905267ffffffffffffffff8316608082015260a0810160019052600087815260026020818152604092839020845181546001600160a01b039182166001600160a01b0319918216178355928601516001830180549183169185169190911790559385015192810180549390941692909116919091179091556060820151600380830191909155608083015160048301805467ffffffffffffffff90921667ffffffffffffffff1983168117825560a086015193919268ffffffffffffffffff19161790600160401b90849081111561076257610762610acf565b021790555050604080516001600160a01b0386811682526020820188905267ffffffffffffffff86168284015291519188169250339189917fad8640a3e560457ff62cc9e10577c93fb8d3236a82775ac426a8f66cf759ce7c919081900360600190a4506107d06001600055565b5050505050565b6107df610817565b6001600160a01b03811661080e57604051631e4fbdf760e01b8152600060048201526024015b60405180910390fd5b6103878161094e565b6001546001600160a01b036101009091041633146102095760405163118cdaa760e01b8152336004820152602401610805565b610852610a22565b6001805460ff191690557f5db9ee0a495bf2e6ff9c91a7834c1ba4fdd244a5e8aa4e537bd38aeae4b073aa335b6040516001600160a01b03909116815260200160405180910390a1565b6002600054036108bf57604051633ee5aeb560e01b815260040160405180910390fd5b6002600055565b60015460ff16156102095760405163d93c066560e01b815260040160405180910390fd5b6040516001600160a01b0383811660248301526044820183905261094991859182169063a9059cbb906064015b604051602081830303815290604052915060e01b6020820180516001600160e01b038381831617835250505050610a45565b505050565b600180546001600160a01b03838116610100818102610100600160a81b031985161790945560405193909204169182907f8be0079c531659141344cd1fd0a4f28419497f9722a3daafe3b4186f6b6457e090600090a35050565b6109b06108c6565b6001805460ff1916811790557f62e78cea01bee320cd4e420270b5ea74000d11b0c9f74754ebdbfc544b05a2583361087f565b6040516001600160a01b038481166024830152838116604483015260648201839052610a1c9186918216906323b872dd90608401610917565b50505050565b60015460ff1661020957604051638dfc202b60e01b815260040160405180910390fd5b600080602060008451602086016000885af180610a68576040513d6000823e3d81fd5b50506000513d91508115610a80578060011415610a8d565b6001600160a01b0384163b155b15610a1c57604051635274afe760e01b81526001600160a01b0385166004820152602401610805565b600060208284031215610ac857600080fd5b5035919050565b634e487b7160e01b600052602160045260246000fd5b6001600160a01b0387811682528681166020830152851660408201526060810184905267ffffffffffffffff8316608082015260c0810160048310610b3a57634e487b7160e01b600052602160045260246000fd5b8260a0830152979650505050505050565b80356001600160a01b0381168114610b6257600080fd5b919050565b600080600080600060a08688031215610b7f57600080fd5b85359450610b8f60208701610b4b565b935060408601359250610ba460608701610b4b565b9150608086013567ffffffffffffffff81168114610bc157600080fd5b809150509295509295909350565b600060208284031215610be157600080fd5b610bea82610b4b565b939250505056fea26469706673582212201763e0bac508261fe96912a6f7e381de6369985a9563ec96855a9535bdcfd7cb64736f6c63430008180033",
  "linkReferences": {},
  "deployedLinkReferences": {}
}